:100000000C942A000C9447000C9447000C94470071
:100010000C9447000C9447000C9447000C94470044
:100020000C9447000C9449000C9447000C944C012C
:100030000C9447000C9447000C9447000C94470024
:100040000C9447000C9447000C9447000C94470014
:100050000C94470011241FBECFE5D4E0DEBFCDBF16
:1000600010E0A0E6B0E0E0E8F3E002C005900D92F9
:10007000AE37B107D9F720E0AEE7B0E001C01D927E
:10008000AD39B207E1F70E9471010C94BE010C94E6
:1000900000001F920F920FB60F9211242F938F938F
:1000A0009F93EF93FF9382B7825282BF8091820029
:1000B000882359F180918100815080938100809143
:1000C0008100811122C080917E0090917F0080FF8D
:1000D00002C0C29A01C0C29880917E0090917F00B8
:1000E0009695879590937F0080937E0083E0809320
:1000F00081008091800081508093800080918000F9
:10010000811103C010928200C29A809196008111E1
:1001100061C080919700882309F1809198008150F7
:1001200080939800811156C010929700109283001E
:1001300080919900823C09F44DC0E0918500F0E087
:10014000EA57FF4F8083809185008F5F8093850001
:10015000803108F43FC0109285003CC0809183003C
:10016000811112C0B39936C081E080938300109250
:100170009A001092990094E09093980098E09093E0
:100180009B0080939C0026C08091980081508093B2
:10019000980081111FC083E080939800B39B0BC02F
:1001A00020919C008091990090919A00822B9093CD
:1001B0009A008093990080919C00880F80939C0006
:1001C00080919B00815080939B00811103C081E04E
:1001D00080939700FF91EF919F918F912F910F90B6
:1001E0000FBE0F901F9018951092820010928300FE
:1001F0001092970010929600BB98C39ABA9AC29A2E
:1002000082E083BF8EED82BF89B7816089BF089588
:1002100080918500909184009817D1F3E09184003B
:10022000F0E0EA57FF4F8081909184009F5F9093A8
:100230008400903110F0109284008A3049F3823C9F
:1002400039F30895909182009111FCCF93E090933F
:1002500081009AE09093800090E0880F991F92604F
:1002600090937F0080937E0081E0809382000895C8
:10027000CF93DF93EC0102C00E942201899181118A
:10028000FBCFDF91CF9108955D9BFECF8CB9089590
:100290005F9BFECF8CB108951F920F920FB60F9205
:1002A00011242F933F934F935F936F937F938F937B
:1002B0009F93AF93BF93EF93FF938CB10E94220162
:1002C000FF91EF91BF91AF919F918F917F916F912E
:1002D0005F914F913F912F910F900FBE0F901F9004
:1002E0001895CF93DF93CDB7DEB72E970FB6F8945E
:1002F000DEBF0FBECDBFF8942FEF80E792E0215014
:1003000080409040E1F700C000001BB888E98AB93E
:1003100086E880BD10BC83E389B90E94F40078941C
:1003200080E690E00E9438018EE0EFE6F0E0DE012A
:10033000119601900D928A95E1F78E010F5F1F4F84
:100340007E01EEE0EE0EF11CF80181918F010E941A
:1003500044010E151F05C1F78FE19EE40197F1F7E7
:1003600000C000000E940801813311F484E303C03F
:10037000823309F485E30E944401EECFF894FFCF65
:10038000736F6674776172652075617274200055B1
:0E03900041525420686172647761726500000A
:00000001FF
