:100000000C942A000C9434000C9434000C943400AA
:100010000C9434000C9434000C9434000C94340090
:100020000C9434000C9434000C9434000C94340080
:100030000C9434000C9434000C9434000C94340070
:100040000C9434000C9434000C9434000C94340060
:100050000C94340011241FBECFE5D4E0DEBFCDBF29
:100060000E9436000C94A3000C9400008FE081BB2A
:1000700082BB84B38C6F84BB85B3836085BB82E015
:1000800090E020E030E0E0E0F0E040E050E0A1E08F
:10009000B0E04CC03097A9F48A3091050CF050C004
:1000A000989913C00FE718E3D1E001501040D040F9
:1000B000E1F700C00000989908C00196E1E0F0E087
:1000C00004C0989B02C0E0E0F0E02115310591F4F6
:1000D00082309105B4F0999912C00FE718E321E03E
:1000E000015010402040E1F700C00000999907C07E
:1000F000019702C0999903C021E030E002C020E0DE
:1001000030E0C2BBDFE708E311E0D150004010400F
:10011000E1F700C000006150710977FFBBCF4F5F6E
:100120005F4F4430510514F040E050E0BD01042E13
:1001300001C0660F0A94EAF7C62FC095BC01EDCF47
:0A014000232B49F2D7CFF894FFCF2C
:00000001FF
