:100000000C942A000C9447000C9447000C94470071
:100010000C9447000C9447000C9447000C94470044
:100020000C9447000C9447000C9447000C94470034
:100030000C9447000C9447000C9447000C94470024
:100040000C9447000C9447000C9447000C94470014
:100050000C94470011241FBECFE5D4E0DEBFCDBF16
:1000600010E0A0E6B0E0EEE6F4E002C005900D92EC
:10007000A63DB107D9F720E0A6EDB0E001C01D9282
:10008000AD3EB207E1F70E94A6010C9435020C9434
:100090000000E091E900F091EA0080830895E0918A
:1000A000EB00F091EC0080830895E091E900F0917D
:1000B000EA0080810895E9EEF0E0A081B1819C9191
:1000C00094609C9392E09A95F1F700C0A081B18171
:1000D0009C919F709C93A081B1819C91807F892B82
:1000E0008C930190F081E02D80818B7F80838DE067
:1000F0008A95F1F700000895CF93C82FE091E900A9
:10010000F091EA0090819E7F90830E945B008C2F8B
:100110008295807FCF910C945B009093EA0080934E
:10012000E900EBEEF0E071836083DC011C9201904A
:10013000F081E02D8FEF808380E30E945B0081EEF1
:1001400094E00197F1F700C0000080E30E945B009B
:1001500095E39A95F1F7000080E30E945B00A5E328
:10016000AA95F1F7000080E20E945B00B5E3BA9522
:10017000F1F7000088E20E947C0085E38A95F1F7A0
:1001800000008CE00E947C0095E39A95F1F7000056
:1001900084E00E947C00A5E3AA95F1F7000081E0CD
:1001A0000E947C0083EF91E00197F1F700C000000E
:1001B0000895CF93C82FA091E900B091EA008C91E7
:1001C00081608C93C03C30F0C05CEC2FF0E0E05AD2
:1001D000FF4FC0818C2F0E945B008C2F8295807F07
:1001E000CF910C945B00EF92FF921F93CF93DF931C
:1001F0001F92CDB7DEB7182FE82EF92E07C0F701F2
:1002000081917F0169830E94D90069818E2D811BB4
:100210008617A8F30F90DF91CF911F91FF90EF9079
:1002200008956150633030F4E62FF0E0E056FF4F60
:10023000908101C090E08F70890F80680C947C00E1
:1002400081E00E947C0083EF91E00197F1F700C00C
:100250000000089588E40E947C0087E20E94D90093
:1002600083E20E94D90085E20E94D90084E20E94C4
:10027000D90084E20E94D90084E30E94D90088E377
:100280000E94D9008CE30C94D90010BC83E389B997
:100290001BB888E18AB986E880BD08955D9BFECFD2
:1002A0008CB90895CF93DF93EC0102C00E944E01F8
:1002B00089918111FBCF8DE0DF91CF910C944E019C
:1002C0000F931F93CF93DF931F92CDB7DEB760E1FB
:1002D00077E20E94210264E670E00E942102082F6A
:1002E0001AE0862F612F0E941502805D99830E947B
:1002F0004E019981892F805D0E944E01802F612FD0
:100300000E941502805D99830E944E019981892F78
:10031000805D0F90DF91CF911F910F910C944E0152
:10032000FC01319604C05F9BFECF2CB121939F014D
:10033000281B390B62177307B4F70895FC015F9B04
:10034000FECF8CB181938D30D1F70895BA9AC298BF
:100350002FEF89E698E1215080409040E1F700C0FE
:1003600000008FEF8BBB8ABB6AE370E08BE390E009
:100370000E948D002FEF89E698E121508040904047
:10038000E1F700C000000E94200160E080E00E94D0
:10039000110160E183EA90E00E94F30061E080E0F7
:1003A0000E94110160E184EB90E00E94F30062E0A2
:1003B00080E00E94110160E185EC90E00E94F30072
:1003C0002FEF89E698E1215080409040E1F700C08E
:1003D00000000E94450178942FEF89E698E12150B2
:1003E00080409040E1F700C00000C29A6AE070E0EF
:1003F00084EB90E00E94900161E080E00E94110196
:1004000060E184EB90E00E94F3006AE070E085EC2C
:1004100090E00E94900162E080E00E94110160E1A2
:1004200085EC90E00E94F300E1CF991B79E004C0D5
:10043000991F961708F0961B881F7A95C9F7809523
:100440000895AA1BBB1B51E107C0AA1FBB1FA6171B
:10045000B70710F0A61BB70B881F991F5A95A9F76D
:0E04600080959095BC01CD010895F894FFCFD2
:10046E0041A042A1E045A3A4A5A64BA74D484FA885
:10047E00504354A9AA58E1ABACE2ADAEADAFB0B1AA
:10048E0061B2B3B4E365B6B7B8B9BABBBCBD6FBEA3
:10049E007063BF79E478E5C0C1E6C2C3C4C5C6C700
:1004AE004010502020436F6F7264696E61746573E3
:1004BE003A20200020202020202020202020274EFF
:1004CE002020202000202020202020202020202737
:0604DE0045202020200053
:00000001FF
