:100000000C942A000C9447000C9447000C94470071
:100010000C9447000C9447000C9447000C94470044
:100020000C9447000C9447000C9447000C94470034
:100030000C9447000C9447000C9447000C94470024
:100040000C9447000C9447000C9447000C94470014
:100050000C94470011241FBECFE5D4E0DEBFCDBF16
:1000600010E0A0E6B0E0E4E1FBE002C005900D92F4
:10007000AE3DB107D9F721E0AEEDB0E001C01D9271
:10008000A833B207E1F70E94A6010C9488050C94EE
:100090000000E0913401F091350180830895E091F2
:1000A0003601F091370180830895E0913401F09199
:1000B000350180810895E4E3F1E0A081B1819C9154
:1000C00094609C9392E09A95F1F700C0A081B18171
:1000D0009C919F709C93A081B1819C91807F892B82
:1000E0008C930190F081E02D80818B7F80838DE067
:1000F0008A95F1F700000895CF93C82FE09134015D
:10010000F091350190819E7F90830E945B008C2F3F
:100110008295807FCF910C945B0090933501809302
:100120003401E6E3F1E071836083DC011C9201900D
:10013000F081E02D8FEF808380E30E945B0081EEF1
:1001400094E00197F1F700C0000080E30E945B009B
:1001500095E39A95F1F7000080E30E945B00A5E328
:10016000AA95F1F7000080E20E945B00B5E3BA9522
:10017000F1F7000088E20E947C0085E38A95F1F7A0
:1001800000008CE00E947C0095E39A95F1F7000056
:1001900084E00E947C00A5E3AA95F1F7000081E0CD
:1001A0000E947C0083EF91E00197F1F700C000000E
:1001B0000895CF93C82FA0913401B09135018C914F
:1001C00081608C93C03C30F0C05CEC2FF0E0E05AD2
:1001D000FF4FC0818C2F0E945B008C2F8295807F07
:1001E000CF910C945B00EF92FF921F93CF93DF931C
:1001F0001F92CDB7DEB7182FE82EF92E07C0F701F2
:1002000081917F0169830E94D90069818E2D811BB4
:100210008617A8F30F90DF91CF911F91FF90EF9079
:1002200008956150633030F4E62FF0E0E056FF4F60
:10023000908101C090E08F70890F80680C947C00E1
:1002400081E00E947C0083EF91E00197F1F700C00C
:100250000000089588E40E947C0087E20E94D90093
:1002600083E20E94D90085E20E94D90084E20E94C4
:10027000D90084E20E94D90084E30E94D90088E377
:100280000E94D9008CE30C94D90010BC83E389B997
:100290001BB888E18AB986E880BD08955D9BFECFD2
:1002A0008CB90895CF93DF93EC0102C00E944E01F8
:1002B00089918111FBCF8DE0DF91CF910C944E019C
:1002C0000F931F93CF93DF931F92CDB7DEB760E1FB
:1002D00077E20E949F0264E670E00E949F02082F6E
:1002E0001AE0862F612F0E949302805D99830E94FD
:1002F0004E019981892F805D0E944E01802F612FD0
:100300000E949302805D99830E944E019981892FFA
:10031000805D0F90DF91CF911F910F910C944E0152
:100320009C01FC0104C05F9BFECF8CB18193CF0187
:10033000821B930B86179707B4F30895FC015F9B0C
:10034000FECF8CB181938D30D1F70895BA9ABB9AC4
:10035000BC9ABD9ABE9ABF9AC29AC39AC49AC59AC9
:10036000C69AC79A2FEF89E698E1215080409040C5
:10037000E1F700C000008FEF8BBB8ABB6AE370E03F
:100380008BE390E00E948D002FEF89E698E12150E9
:1003900080409040E1F700C000000E9420010E94D0
:1003A000450178942FEF89E698E1215080409040F4
:1003B000E1F700C00000C3ECD0E00EED10E08FECE0
:1003C000E82E80E0F82E99EEC92E90E0D92E83EA2F
:1003D00090E00E94520186EF90E00E949E01C69A32
:1003E0008091F7008F3409F09CC08091F8008B3425
:1003F00009F097C087EA90E00E94520186EF90E0F2
:100400000E949E018091F7008F3409F08AC080918C
:10041000F8008B3409F085C080EB90E00E94520117
:1004200086EF90E00E949E018091F7008F3409F0E2
:1004300078C08091F8008B3409F073C08091FA0085
:1004400080933201109233011F928F93DF93CF93E9
:100450001F930F930E94B302809133018F93809179
:1004600032018F93FF92EF92DF92CF920E94B302FC
:100470008DB79EB70C960FB6F8949EBF0FBE8DBF7A
:100480008EED90E00E94520186EF90E00E949E0166
:100490008091FC008233E9F5C79AC59889EE90E017
:1004A0000E94520186EF90E00E949E018091F70029
:1004B0008F3489F58091F8008B3469F58091FA00CA
:1004C000803349F1C79861E070E088E291E00E94D2
:1004D000900180912801813359F4C3989FEF29E658
:1004E00088E1915020408040E1F700C00000C39AAD
:1004F00080912801823379F4C298C4989FEF29E64D
:1005000088E1915020408040E1F700C00000C49A8B
:1005100002C0C59AC7988091FC00803309F0B0CF23
:1005200056CFC69854CF991B79E004C0991F9617EF
:1005300008F0961B881F7A95C9F780950895AA1B25
:10054000BB1B51E107C0AA1FBB1FA617B70710F0BE
:10055000A61BB70B881F991F5A95A9F780959095F0
:10056000BC01CD010895AEE0B0E0E9EBF2E00C94FF
:100570005F050D891E8986E08C831A8309838FEFBE
:100580009FE79E838D83CE014996AC016F89788D5C
:10059000CE0101960E94D502EF81F885E00FF11F90
:1005A00010822E96E4E00C947B05ACE0B0E0EBED1D
:1005B000F2E00C9451057C016B018A01FC01178269
:1005C0001682838181FFC6C188248394912C8C0E6E
:1005D0009D1EF7019381F60193FD859193FF819113
:1005E0006F01882309F4B2C1853239F493FD8591F6
:1005F00093FF81916F01853229F4B70190E00E9449
:10060000C704E7CF512C312C20E02032A8F48B32E4
:1006100061F028F4803251F0833271F40BC08D32D6
:1006200039F0803349F4216028C02260246025C05D
:10063000286023C0206121C027FD27C0382F3053F8
:100640003A3078F426FF06C0FAE05F9E300D1124A0
:10065000532E13C08AE0389E300D1124332E2062B1
:100660000CC08E3221F426FD71C1206406C08C3688
:1006700011F4206802C0883641F4F60193FD85919B
:1006800093FF81916F018111C0CF982F95549330C2
:1006900018F09052933028F40C5F1F4FFFE3F9835A
:1006A0000DC0833631F0833771F0833509F05EC0B9
:1006B00023C0F801808189830E5F1F4F4424439437
:1006C000512C540115C03801F2E06F0E711CF80175
:1006D000A080B18026FF03C0652D70E002C06FEFDF
:1006E0007FEFC5012C870E94BC042C0183012C855F
:1006F0006FE7262E222218C03801F2E06F0E711C1F
:10070000F801A080B18026FF03C0652D70E002C013
:100710006FEF7FEFC5012C870E94B1042C012C855F
:1007200050E8252E222A830123FC1CC006C0B701F5
:1007300080E290E00E94C7043A94832D90E048162E
:100740005906A8F30FC0F50127FC859127FE81917A
:100750005F01B70190E00E94C70431103A94F1E0C4
:100760004F1A51084114510471F7EDC0843611F04D
:10077000893641F5F80127FF07C0608171818281C8
:1007800093810C5F1F4F08C060817181882777FDBE
:100790008095982F0E5F1F4F4FE6B42EB22297FF21
:1007A00009C090958095709561957F4F8F4F9F4FB1
:1007B000F0E8BF2A2AE030E0A4010E94F304A82E4A
:1007C000A81843C0853731F43FEEB32EB2222AE099
:1007D00030E024C099EFB92EB2228F36B9F020F460
:1007E000883509F0B3C00DC0803721F0883709F093
:1007F000ADC002C020E1B22AB4FE0BC084E0B82A2A
:1008000008C024FF09C0E6E0BE2A06C028E030E0A8
:1008100005C020E130E002C020E132E0F801B7FE7F
:1008200007C060817181828193810C5F1F4F06C078
:100830006081718180E090E00E5F1F4FA4010E94F3
:10084000F304A82EA818FFE7BF22B6FE0BC02B2D7D
:100850002E7FA51450F4B4FE0AC0B2FC08C02B2DA4
:100860002E7E05C07A2C2B2D03C07A2C01C0752C4E
:1008700024FF0DC0FE01EA0DF11D8081803311F4CB
:10088000297E09C022FF06C07394739404C0822F8E
:10089000867809F0739423FD14C020FF0FC05A2CF2
:1008A000731460F4530C5718732C08C0B70180E21E
:1008B00090E02C870E94C70473942C857314B0F3C6
:1008C00004C0731410F4371801C0312C24FF12C077
:1008D000B70180E390E02C870E94C7042C8522FF9B
:1008E0001EC021FF03C088E590E002C088E790E0C9
:1008F000B7010CC0822F867891F021FD02C080E202
:1009000001C08BE227FD8DE2B70190E00E94C70491
:1009100006C0B70180E390E00E94C7045A94A51472
:10092000C0F3AA94F401EA0DF11DB701808190E0B3
:100930000E94C704A110F5CF06C0B70180E290E085
:100940000E94C7043A943110F8CF43CEF7012681B4
:10095000378102C02FEF3FEFC9012C96E2E10C94E2
:100960006D05FC010590615070400110D8F780952D
:1009700090958E0F9F1F0895FC016150704001906B
:100980000110D8F7809590958E0F9F1F08950F93B3
:100990001F93CF93DF938C01EB018B8181FD03C00B
:1009A0000FEF1FEF1AC082FF0DC02E813F818C8197
:1009B0009D812817390764F4E881F9810193F9834F
:1009C000E88306C0E885F985802F0995892B41F7D2
:1009D0008E819F8101969F838E83C801DF91CF9185
:1009E0001F910F910895FA01AA27283051F1203163
:1009F00081F1E8946F936E7F6E5F7F4F8F4F9F4FB3
:100A0000AF4FB1E03ED0B4E03CD0670F781F891FF4
:100A10009A1FA11D680F791F8A1F911DA11D6A0FC2
:100A2000711D811D911DA11D20D009F468943F9175
:100A30002AE0269F11243019305D3193DEF6CF0174
:100A40000895462F4770405D4193B3E00FD0C9F73A
:100A5000F6CF462F4F70405D4A3318F0495D31FDA7
:100A60004052419302D0A9F7EACFB4E0A6959795FA
:100A7000879577956795BA95C9F7009761057105D0
:100A800008959B01AC010A2E06945795479537951A
:100A90002795BA95C9F7620F731F841F951FA01D74
:100AA00008952F923F924F925F926F927F928F9212
:100AB0009F92AF92BF92CF92DF92EF92FF920F93ED
:100AC0001F93CF93DF93CDB7DEB7CA1BDB0B0FB6F7
:100AD000F894DEBF0FBECDBF09942A8839884888B4
:100AE0005F846E847D848C849B84AA84B984C8844A
:100AF000DF80EE80FD800C811B81AA81B981CE0F41
:100B0000D11D0FB6F894DEBF0FBECDBFED01089525
:040B1000F894FFCF87
:100B140041A042A1E045A3A4A5A64BA74D484FA8D8
:100B2400504354A9AA58E1ABACE2ADAEADAFB0B1FD
:100B340061B2B3B4E365B6B7B8B9BABBBCBD6FBEF6
:100B44007063BF79E478E5C0C1E6C2C3C4C5C6C753
:100B540040105041542B0041542B574A4F494E00EA
:100B640041542B534B43543D302C312C302C3530D5
:100B740030300041542B534B5354543D25630041B2
:0E0B8400542B534B5243563D25632C34000036
:00000001FF
