:100000000C9482000C942C020C949F000C949F0082
:100010000C949F000C949F000C949F000C949F00E4
:100020000C949F000C949F000C9486020C949F00EB
:100030000C949F000C949F000C949F000C949F00C4
:100040000C949F000C949F000C949F000C949F00B4
:100050000C949F00E20059015901590159015901BD
:1000600059015901590159015901590159015901C0
:1000700059015901240159015901590159015901E5
:1000800059015901D600D800DA00DC00DE00E0009A
:10009000E400E600E800EA00EC00EE00F000F20008
:1000A000F400F600F800FA00FC00FE000001020176
:1000B0000401060108010A010C010E0110011201E0
:1000C0001401160118011A011C011E012001220150
:1000D000260128012A012C012E01300132013401B0
:1000E000360138013A013C013E0140014201440120
:1000F000460148014A014C014E0150015201540190
:100100005601580111241FBECFE5D4E0DEBFCDBF9C
:1001100010E0A0E6B0E0ECE5FBE002C005900D9237
:10012000A039B107D9F720E0A0E9B0E001C01D92E5
:10013000A139B207E1F70E94B9020C94AC050C9406
:100140000000DA9A92E09A95F1F700C09BB39F7095
:100150009BBB9BB3807F892B8BBBDA988DE08A9504
:10016000F1F700000895CF93C82FD8980E94A100FE
:100170008C2F8295807FCF910C94A100CF93C82FB4
:10018000D89A0E94A1008C2F8295807FCF910C94E9
:10019000A100482F50E0FA01E85AF109E835F105CD
:1001A00008F087C0E65DFF4F0C94D10281E408950A
:1001B00080EA089582E4089581EA089580EE089522
:1001C00085E4089582EA089583EA089584EA08950B
:1001D00085EA089586EA08958BE4089587EA0895EC
:1001E0008DE4089588E408958FE4089588EA0895D9
:1001F00080E5089583E4089584E5089589EA0895E3
:100200008AEA089588E5089581EE08958BEA0895B5
:100210008CEA089582EE08958DEA08958EEA089595
:1002200088E008958FEA089580EB089581EB0895A2
:1002300081E6089582EB089583EB089584EB089599
:1002400083EE089585E6089585EB089586EB08957D
:1002500087EB089588EB089589EB08958AEB08955C
:100260008BEB08958CEB08958DEB08958FE6089540
:100270008EEB089580E7089583E608958FEB089547
:1002800089E7089584EE089588E7089585EE089536
:1002900080EC089581EC089586EE089582EC08952F
:1002A00083EC089584EC089585EC089586EC089518
:1002B00087EC08958AB3876F8ABB8BB388708BBB3A
:1002C00080E30E94A10081EE94E00197F1F700C065
:1002D000000080E30E94A10095E39A95F1F70000E9
:1002E00080E30E94A10085E38A95F1F7000080E297
:1002F0000E94A10095E39A95F1F7000088E20E9420
:10030000B30085E38A95F1F700008CE00E94B3000A
:1003100095E39A95F1F7000084E00E94B30085E32D
:100320008A95F1F7000081E00E94B30083EF91E02D
:100330000197F1F700C000000895EF92FF921F931C
:10034000CF93DF931F92CDB7DEB7182FE82EF92E8B
:1003500009C0F70181917F0169830E94C9000E9451
:10036000BE0069818E2D811B861798F30F90DF9157
:10037000CF911F91FF90EF9008956150633030F45A
:10038000E62FF0E0ED59FF4F908101C090E08F70B3
:10039000890F80680C94B30081E00E94B30083EF62
:1003A00091E00197F1F700C000000895809162008C
:1003B0001F928F931F928F9386E690E09F938F9367
:1003C0008EE690E09F938F930E94D70263E080E0D7
:1003D0000E94BD018DB79EB708960FB6F8949EBFD8
:1003E0000FBE8DBF60E18EE690E00C949D01919868
:1003F0002FE986E891E0215080409040E1F700C06D
:100400000000919A83E294EF0197F1F700C0000099
:10041000089587B3806B87BBBE9880E88EB987ED5F
:100420008DB9889A909A08959098E9EFF0E0319705
:10043000F1F700C000008FB9779BFECFF1E2FA958B
:10044000F1F70000909A0895909885E58FB9779B11
:10045000FECF909A8FB108951F920F920FB60F9210
:1004600011240F931F932F933F934F935F936F9399
:100470007F938F939F93AF93BF93CF93DF93EF932C
:10048000FF9382E70E94140283EC99E00197F1F751
:1004900000C00000C0E0D0E0009160001091610059
:1004A0000C0F1D1F0E942402F801808383EC99E049
:1004B0000197F1F700C000002196CC30D10561F71B
:1004C00061E080E00E94BD01E0916000F091610078
:1004D00080E2808360E180916000909161000E94E1
:1004E0009D01FF91EF91DF91CF91BF91AF919F91CE
:1004F0008F917F916F915F914F913F912F911F91BC
:100500000F910F900FBE0F901F9018951F920F9292
:100510000FB60F9211242F933F934F935F936F93D6
:100520007F938F939F93AF93BF93EF93FF9361E07C
:1005300080E00E94BD01E0916000F091610080E2E6
:1005400080836CE080916000909161000E949D0129
:10055000FF91EF91BF91AF919F918F917F916F919B
:100560005F914F913F912F910F900FBE0F901F9071
:1005700018950E945A010E9409028A9882B38560E8
:1005800082BB80E48BBF85B7836085BF60E080E07D
:100590000E94BD0160E18FE790E00E949D01789488
:1005A000FFCFEE0FFF1F0590F491E02D0994AEE010
:1005B000B0E0EDEDF2E00C9483050D891E8986E034
:1005C0008C831A8309838FEF9FE79E838D83CE01EF
:1005D0004996AC016F89788DCE0101960E94F9028F
:1005E000EF81F885E00FF11F10822E96E4E00C9465
:1005F0009F05ACE0B0E0EFEFF2E00C9475057C01F4
:100600006B018A01FC0117821682838181FFC6C1BA
:1006100088248394912C8C0E9D1EF7019381F60102
:1006200093FD859193FF81916F01882309F4B2C1F5
:10063000853239F493FD859193FF81916F01853265
:1006400029F4B70190E00E94EB04E7CF512C312C44
:1006500020E02032A8F48B3261F028F4803251F08F
:10066000833271F40BC08D3239F0803349F421604C
:1006700028C02260246025C0286023C0206121C0DA
:1006800027FD27C0382F30533A3078F426FF06C0B4
:10069000FAE05F9E300D1124532E13C08AE0389E7D
:1006A000300D1124332E20620CC08E3221F426FD31
:1006B00071C1206406C08C3611F4206802C08836EF
:1006C00041F4F60193FD859193FF81916F018111B2
:1006D000C0CF982F9554933018F09052933028F44F
:1006E0000C5F1F4FFFE3F9830DC0833631F0833772
:1006F00071F0833509F05EC023C0F80180818983E1
:100700000E5F1F4F44244394512C540115C03801EF
:10071000F2E06F0E711CF801A080B18026FF03C0CB
:10072000652D70E002C06FEF7FEFC5012C870E943E
:10073000E0042C0183012C856FE7262E222218C0AD
:100740003801F2E06F0E711CF801A080B18026FF25
:1007500003C0652D70E002C06FEF7FEFC5012C87ED
:100760000E94D5042C012C8550E8252E222A8301D5
:1007700023FC1CC006C0B70180E290E00E94EB049D
:100780003A94832D90E048165906A8F30FC0F5015E
:1007900027FC859127FE81915F01B70190E00E94BF
:1007A000EB0431103A94F1E04F1A5108411451040E
:1007B00071F7EDC0843611F0893641F5F80127FF55
:1007C00007C060817181828193810C5F1F4F08C0D7
:1007D00060817181882777FD8095982F0E5F1F4F6C
:1007E0004FE6B42EB22297FF09C090958095709580
:1007F00061957F4F8F4F9F4FF0E8BF2A2AE030E08E
:10080000A4010E941705A82EA81843C0853731F40B
:100810003FEEB32EB2222AE030E024C099EFB92E89
:10082000B2228F36B9F020F4883509F0B3C00DC07C
:10083000803721F0883709F0ADC002C020E1B22A2C
:10084000B4FE0BC084E0B82A08C024FF09C0E6E06B
:10085000BE2A06C028E030E005C020E130E002C03A
:1008600020E132E0F801B7FE07C06081718182812A
:1008700093810C5F1F4F06C06081718180E090E022
:100880000E5F1F4FA4010E941705A82EA818FFE7AE
:10089000BF22B6FE0BC02B2D2E7FA51450F4B4FE44
:1008A0000AC0B2FC08C02B2D2E7E05C07A2C2B2D41
:1008B00003C07A2C01C0752C24FF0DC0FE01EA0D87
:1008C000F11D8081803311F4297E09C022FF06C00A
:1008D0007394739404C0822F867809F0739423FD77
:1008E00014C020FF0FC05A2C731460F4530C571817
:1008F000732C08C0B70180E290E02C870E94EB04C3
:1009000073942C857314B0F304C0731410F4371867
:1009100001C0312C24FF12C0B70180E390E02C8786
:100920000E94EB042C8522FF1EC021FF03C088E536
:1009300090E002C088E790E0B7010CC0822F867873
:1009400091F021FD02C080E201C08BE227FD8DE223
:10095000B70190E00E94EB0406C0B70180E390E08D
:100960000E94EB045A94A514C0F3AA94F401EA0D72
:10097000F11DB701808190E00E94EB04A110F5CF3A
:1009800006C0B70180E290E00E94EB043A94311077
:10099000F8CF43CEF7012681378102C02FEF3FEF1A
:1009A000C9012C96E2E10C949105FC01059061507F
:1009B00070400110D8F7809590958E0F9F1F089575
:1009C000FC016150704001900110D8F7809590951E
:1009D0008E0F9F1F08950F931F93CF93DF938C016A
:1009E000EB018B8181FD03C00FEF1FEF1AC082FF67
:1009F0000DC02E813F818C819D812817390764F4B9
:100A0000E881F9810193F983E88306C0E885F985D7
:100A1000802F0995892B41F78E819F8101969F83B5
:100A20008E83C801DF91CF911F910F910895FA0134
:100A3000AA27283051F1203181F1E8946F936E7F1D
:100A40006E5F7F4F8F4F9F4FAF4FB1E03ED0B4E00E
:100A50003CD0670F781F891F9A1FA11D680F791F4F
:100A60008A1F911DA11D6A0F711D811D911DA11D60
:100A700020D009F468943F912AE0269F1124301970
:100A8000305D3193DEF6CF010895462F4770405D0B
:100A90004193B3E00FD0C9F7F6CF462F4F70405DBA
:100AA0004A3318F0495D31FD4052419302D0A9F715
:100AB000EACFB4E0A6959795879577956795BA950F
:100AC000C9F700976105710508959B01AC010A2ED5
:100AD00006945795479537952795BA95C9F7620FAC
:100AE000731F841F951FA01D08952F923F924F9250
:100AF0005F926F927F928F929F92AF92BF92CF92AE
:100B0000DF92EF92FF920F931F93CF93DF93CDB7B6
:100B1000DEB7CA1BDB0B0FB6F894DEBF0FBECDBF2E
:100B200009942A88398848885F846E847D848C84FF
:100B30009B84AA84B984C884DF80EE80FD800C8108
:100B40001B81AA81B981CE0FD11D0FB6F894DEBFEB
:0C0B50000FBECDBFED010895F894FFCF5B
:100B5C006E00804010502569202D20256300202038
:100B6C00202020202020202020202020202000CFEA
:100B7C00EEF1EBE5E4EDE5E920E1FBEBE03A2000FA
:00000001FF
