:1000000000308A008C280000FF00030E8301A1004D
:100010000A08A0008A010408A2007708A300780853
:10002000A4007908A5007A08A600831383120B1E8A
:100030001B288B182C28220884002308F70024088A
:10004000F8002508F9002608FA0020088A00210E89
:100050008300FF0E7F0E09008A110A1243283F30E9
:10006000840083130008031942280630F800F701C2
:10007000F70B3828F80B37287B30F700F70B3E28B2
:10008000800B35280800BC013B083C020318782887
:10009000831686148312861C4828A7132708831604
:1000A0008700831287130230BF002F203C082807E7
:1000B00084008313291883170008BD003D08BE0083
:1000C0008316880183123E0888000230BF002F206B
:1000D00083168614831286186828A71327088316A8
:1000E0008700831287170A30BF002F20BC0A4428DC
:1000F0008B108A110A121B28003083168800FF30EB
:1001000087008312A700A71327088316870083128E
:1001100087178A110A12C52803081F398300FF3088
:10012000A7001030BB0083161F149F141F159F11CA
:1001300007309C00831334308312AA003230AB00A6
:100140002B30AC003430AD003230AE002D30AF007B
:100150003430B0003230B1002A30B2003430B30055
:100160003230B4002F30B5003430B6003230B70032
:100170003D30B8003F30B900BA01A9012A30A800CB
:100180000B138B138B1BC1287C28FF308316860032
:10019000011783128B158316811383120B100B1614
:0801A000C0308B04D22863007B
:02400E00323F3F
:00000001FF
;PIC16F877A
;CRC=CB77  CREATED="30-апр-15 02:01"
