:100000000C942A000C9419010C9463010C94470081
:100010000C9447000C9447000C94D2000C944700B9
:100020000C9447000C9447000C9447000C94470034
:100030000C9447000C9447000C9447000C94470024
:100040000C9447000C9447000C9447000C94470014
:100050000C94470011241FBECFE5D4E0DEBFCDBF16
:1000600010E0A0E6B0E0EEEEFBE002C005900D92DD
:10007000A63FB107D9F721E0A6EFB0E001C01D927D
:10008000A031B207E1F70E94B5020C94F5050C947B
:100090000000EF92FF920F931F93CF93DF93CDB7A2
:1000A000DEB728970FB6F894DEBF0FBECDBF7C0138
:1000B0009C01220F331FF901EA50FF4F60817181CB
:1000C000F901E450FF4F40815181F901EE5FFE4F8D
:1000D000808191817F936F935F934F939F938F93D1
:1000E00083EA90E09F938F938E010F5F1F4F1F93C2
:1000F0000F930E9420036E2D88E00E94810268E029
:10010000C8010E9463020FB6F894DEBF0FBECDBFD8
:1001100028960FB6F894DEBF0FBECDBFDF91CF910A
:100120001F910F91FF90EF9008958091F6009091AC
:10013000F70001969093F7008093F6008091F60007
:100140009091F700CC9751F51092F7001092F600BD
:100150008091FC009091FD0001969093FD008093AA
:10016000FC008091FC009091FD00CC97B9F41092B6
:10017000FD001092FC008091020190910301019614
:1001800090930301809302018091FC009091FD0007
:10019000CC9721F4109203011092020180E090E0CC
:1001A0000C9449001F920F920FB60F9211242F93B7
:1001B0003F934F935F936F937F938F939F93AF93EF
:1001C000BF93EF93FF9380910A0190910B01892BCC
:1001D00049F080910A0190910B01019790930B01D6
:1001E00080930A01809108019091090101969093F2
:1001F00009018093080180910801909109018D37D0
:10020000910531F40E9495001092090110920801A5
:10021000FF91EF91BF91AF919F918F917F916F91DE
:100220005F914F913F912F910F900FBE0F901F90B4
:1002300018951F920F920FB60F9211242F933F9390
:100240004F935F936F937F938F939F93AF93BF93DE
:10025000EF93FF9380910A0190910B01892B11F587
:100260008091020190910301909305018093040114
:100270008091FC009091FD009093FF008093FE0020
:100280008091F6009091F7009093F9008093F80028
:1002900081E090E00E9449008DE790E090930B018F
:1002A00080930A01FF91EF91BF91AF919F918F9140
:1002B0007F916F915F914F913F912F910F900FBE62
:1002C0000F901F9018951F920F920FB60F92112446
:1002D0002F933F934F935F936F937F938F939F934E
:1002E000AF93BF93EF93FF9380910A0190910B011D
:1002F000892B11F5809102019091030190930701E0
:10030000809306018091FC009091FD009093010183
:10031000809300018091F6009091F7009093FB008C
:100320008093FA0082E090E00E9449008DE790E01F
:1003300090930B0180930A01FF91EF91BF91AF91D0
:100340009F918F917F916F915F914F913F912F91ED
:100350000F900FBE0F901F901895E0910C01F09137
:100360000D0180830895E0910E01F0910F018083CB
:100370000895E0910C01F0910D0180810895ECE069
:10038000F1E0A081B1819C9194609C9395E19A9554
:10039000F1F70000A081B1819C919F709C93A08196
:1003A000B1819C91807F892B8C930190F081E02D0D
:1003B00080818B7F80838AE68A95F1F700C008955B
:1003C000CF93C82FE0910C01F0910D0190819E7F99
:1003D00090830E94BF018C2F8295807FCF910C94D7
:1003E000BF0190930D0180930C01EEE0F1E0718369
:1003F0006083DC011C920190F081E02D8FEF8083FF
:1004000080E30E94BF018FE097E20197F1F700C0FF
:10041000000080E30E94BF01AFE3B1E01197F1F764
:1004200000C0000080E30E94BF018FE391E00197CC
:10043000F1F700C0000080E20E94BF01AFE3B1E02D
:100440001197F1F700C0000088E20E94E0018FE3FD
:1004500091E00197F1F700C000008CE00E94E001FC
:10046000AFE3B1E01197F1F700C0000084E00E9413
:10047000E0018FE391E00197F1F700C0000081E017
:100480000E94E001AFE9BFE01197F1F700C0000062
:100490000895CF93C82FA0910C01B0910D018C91BC
:1004A00081608C93C03C30F0C05CEC2FF0E0E05AEF
:1004B000FF4FC0818C2F0E94BF018C2F8295807FBF
:1004C000CF910C94BF01EF92FF921F93CF93DF93D4
:1004D0001F92CDB7DEB7182FE82EF92E07C0F7010F
:1004E00081917F0169830E94490269818E2D811B60
:1004F0008617A8F30F90DF91CF911F91FF90EF9097
:1005000008956150633030F4E62FF0E0E056FF4F7D
:10051000908101C090E08F70890F80680C94E00199
:1005200081E00E94E0018FE99FE00197F1F700C0B0
:100530000000089588E40E94E00187E20E944902D9
:1005400083E20E94490285E20E94490284E20E94FD
:10055000490284E20E94490284E30E94490288E33E
:100560000E9449028CE30C9449028FEF8BBB8ABB3B
:100570001092F7001092F6001092FD001092FC000D
:100580001092F9001092F8001092FF001092FE00F5
:100590001092FB001092FA001092010110920001DB
:1005A0002CE02EBD8AEF90E09BBD8ABD89B78061AB
:1005B00089BF1DBC1CBC109209011092080180EC7F
:1005C0008BBF8FE085BF8DE790E090930B01809308
:1005D0000A0122BB11BA6AE370E08BE390E00E944B
:1005E000F10160E080E00E94810260E182EB90E036
:1005F0000E94630261E080E00E94810260E183EC7E
:1006000090E00E94630262E080E00E94810260E16B
:1006100084ED90E00E94630263E080E00E9481022A
:1006200060E185EE90E00E9463020E949A0263E01E
:100630008EE00E94810281E00E9449027894FFCFFF
:10064000AEE0B0E0E6E2F3E00C94CC050D891E8943
:1006500086E08C831A8309838FEF9FE79E838D83C7
:10066000CE014996AC016F89788DCE0101960E942A
:100670004203EF81F885E00FF11F10822E96E4E02F
:100680000C94E805ACE0B0E0E8E4F3E00C94BE05BF
:100690007C016B018A01FC0117821682838181FF34
:1006A000C6C188248394912C8C0E9D1EF7019381E2
:1006B000F60193FD859193FF81916F01882309F4E1
:1006C000B2C1853239F493FD859193FF81916F0119
:1006D000853229F4B70190E00E943405E7CF512C10
:1006E000312C20E02032A8F48B3261F028F48032E3
:1006F00051F0833271F40BC08D3239F0803349F4FC
:10070000216028C02260246025C0286023C02061A9
:1007100021C027FD27C0382F30533A3078F426FF08
:1007200006C0FAE05F9E300D1124532E13C08AE0FC
:10073000389E300D1124332E20620CC08E3221F4ED
:1007400026FD71C1206406C08C3611F4206802C0F9
:10075000883641F4F60193FD859193FF81916F01F5
:100760008111C0CF982F9554933018F09052933048
:1007700028F40C5F1F4FFFE3F9830DC0833631F07F
:10078000833771F0833509F05EC023C0F8018081A2
:1007900089830E5F1F4F44244394512C540115C08C
:1007A0003801F2E06F0E711CF801A080B18026FFC5
:1007B00003C0652D70E002C06FEF7FEFC5012C878D
:1007C0000E9429052C0183012C856FE7262E222209
:1007D00018C03801F2E06F0E711CF801A080B180E2
:1007E00026FF03C0652D70E002C06FEF7FEFC501EB
:1007F0002C870E941E052C012C8550E8252E222ACC
:10080000830123FC1CC006C0B70180E290E00E9477
:1008100034053A94832D90E048165906A8F30FC08A
:10082000F50127FC859127FE81915F01B70190E0DA
:100830000E94340531103A94F1E04F1A51084114E6
:10084000510471F7EDC0843611F0893641F5F80195
:1008500027FF07C060817181828193810C5F1F4FE8
:1008600008C060817181882777FD8095982F0E5F81
:100870001F4F4FE6B42EB22297FF09C09095809586
:10088000709561957F4F8F4F9F4FF0E8BF2A2AE008
:1008900030E0A4010E946005A82EA81843C0853747
:1008A00031F43FEEB32EB2222AE030E024C099EFBB
:1008B000B92EB2228F36B9F020F4883509F0B3C0D2
:1008C0000DC0803721F0883709F0ADC002C020E1AB
:1008D000B22AB4FE0BC084E0B82A08C024FF09C0C5
:1008E000E6E0BE2A06C028E030E005C020E130E0A6
:1008F00002C020E132E0F801B7FE07C060817181DB
:10090000828193810C5F1F4F06C06081718180E0FE
:1009100090E00E5F1F4FA4010E946005A82EA8184A
:10092000FFE7BF22B6FE0BC02B2D2E7FA51450F47F
:10093000B4FE0AC0B2FC08C02B2D2E7E05C07A2C56
:100940002B2D03C07A2C01C0752C24FF0DC0FE0195
:10095000EA0DF11D8081803311F4297E09C022FF48
:1009600006C07394739404C0822F867809F0739440
:1009700023FD14C020FF0FC05A2C731460F4530CD5
:100980005718732C08C0B70180E290E02C870E94B2
:10099000340573942C857314B0F304C0731410F4ED
:1009A000371801C0312C24FF12C0B70180E390E05A
:1009B0002C870E9434052C8522FF1EC021FF03C016
:1009C00088E590E002C088E790E0B7010CC0822F74
:1009D000867891F021FD02C080E201C08BE227FD04
:1009E0008DE2B70190E00E94340506C0B70180E3B4
:1009F00090E00E9434055A94A514C0F3AA94F4011F
:100A0000EA0DF11DB701808190E00E943405A1102C
:100A1000F5CF06C0B70180E290E00E9434053A9419
:100A20003110F8CF43CEF7012681378102C02FEF76
:100A30003FEFC9012C96E2E10C94DA05FC01059028
:100A4000615070400110D8F7809590958E0F9F1FD0
:100A50000895FC016150704001900110D8F7809515
:100A600090958E0F9F1F08950F931F93CF93DF9341
:100A70008C01EB018B8181FD03C00FEF1FEF1AC0CA
:100A800082FF0DC02E813F818C819D8128173907FF
:100A900064F4E881F9810193F983E88306C0E8856D
:100AA000F985802F0995892B41F78E819F810196C9
:100AB0009F838E83C801DF91CF911F910F9108957D
:100AC000FA01AA27283051F1203181F1E8946F937F
:100AD0006E7F6E5F7F4F8F4F9F4FAF4FB1E03ED025
:100AE000B4E03CD0670F781F891F9A1FA11D680FC3
:100AF000791F8A1F911DA11D6A0F711D811D911DF6
:100B0000A11D20D009F468943F912AE0269F11246A
:100B10003019305D3193DEF6CF010895462F4770CE
:100B2000405D4193B3E00FD0C9F7F6CF462F4F7029
:100B3000405D4A3318F0495D31FD4052419302D087
:100B4000A9F7EACFB4E0A69597958795779567952D
:100B5000BA95C9F700976105710508959B01AC012D
:100B60000A2E06945795479537952795BA95C9F754
:100B7000620F731F841F951FA01D08952F923F922F
:100B80004F925F926F927F928F929F92AF92BF929D
:100B9000CF92DF92EF92FF920F931F93CF93DF9349
:100BA000CDB7DEB7CA1BDB0B0FB6F894DEBF0FBEA6
:100BB000CDBF09942A88398848885F846E847D84F3
:100BC0008C849B84AA84B984C884DF80EE80FD80F5
:100BD0000C811B81AA81B981CE0FD11D0FB6F8946B
:0E0BE000DEBF0FBECDBFED010895F894FFCF2C
:100BEE0041A042A1E045A3A4A5A64BA74D484FA8FE
:100BFE00504354A9AA58E1ABACE2ADAEADAFB0B123
:100C0E0061B2B3B4E365B6B7B8B9BABBBCBD6FBE1B
:100C1E007063BF79E478E5C0C1E6C2C3C4C5C6C778
:100C2E00401050253032643A253032643A25303245
:100C3E00640054696D653A202020204E2F412020FB
:100C4E002020004C6170313A202020204E2F412070
:100C5E00202020004C6170323A202020204E2F415F
:100C6E002020202000C3F3F1FCEAEEE220CC2EC5BA
:060C7E002E3A20202000A8
:00000001FF
