:020000040000FA
:10000000831600308700F8308800003086008312A5
:100010001C2882073F3406345B344F3466346D3419
:100020007D3407347F346F3440342308A400220821
:10003000A3002108A2000800FF30A0000A30A100A0
:10004000A200A300A4008801FF308600861670205D
:1000500021083B208801A000FF3A0319262815201B
:100060002008A100861270203B208801A000FF3AE2
:10007000031D322826280814081A0134881A04346B
:10008000081B0734881B5A2808108814081A0234E1
:10009000881A0534081B0834881B0034881008159A
:1000A000081A0334881A0634081B0934881B5F2891
:1000B0000811FF340A30A200A300A4000A34033060
:1000C000A2000230A3000130A40004340800043070
:1000D000A600FF30A700A70B6B28A60B6928080015
:1000E000210809200610870067200614220809202D
:1000F00086108700672086142308092006118700D0
:1001000067200615240809208611870067208615B8
:020110000800E5
:02400E00323F3F
:00000001FF
