:100000000C942A000C9447000C9447000C94470071
:100010000C9447000C9447000C9447000C94470044
:100020000C9447000C9447000C9447000C94470034
:100030000C9447000C9447000C9447000C94470024
:100040000C9447000C9447000C9450000C9447000B
:100050000C94470011241FBECFE5D4E0DEBFCDBF16
:1000600010E0A0E6B0E0ECE1F4E002C005900D92F3
:10007000A83DB107D9F720E0A8EDB0E001C01D927E
:10008000AE3EB207E1F70E94F1010C940C020C9411
:10009000000011BA8FEF82BB9BEF97BB88BB08951E
:1000A0001F920F920FB60F9211242F933F934F93ED
:1000B0005F936F937F938F939F93AF93BF93EF93D0
:1000C000FF938FE99FE00197F1F700C0000084E003
:1000D00088BB8091D900811116C062E00E94BD01E9
:1000E00060E185EA90E00E949F0163E080E00E9469
:1000F000BD0160E185EA90E00E949F018FE097E2F8
:100100000197F1F704C08FE496E40197F1F700C07E
:1001100000008091D900E0916000F0916100E80F4B
:10012000F11D8AE280838091D90090B3E82FF0E03E
:10013000E652FF4F90838F5F8093D90061E080E0AB
:100140000E94BD0160E180916000909161000E9479
:100150009F018FEF88BB8091D900803149F50DC098
:10016000E0916000F0916100E80FF11D90838091B3
:10017000D8008F5F8093D80001C090E28091D800B2
:10018000803170F31092D8001092D90062E080E0C4
:100190000E94BD0160E18AED90E00E949F0163E052
:1001A00080E00E94BD0160E186EB90E00E949F012B
:1001B000FF91EF91BF91AF919F918F917F916F913F
:1001C0005F914F913F912F910F900FBE0F901F9015
:1001D0001895E091EA00F091EB0080830895E0919A
:1001E000EC00F091ED0080830895E091EA00F09139
:1001F000EB0080810895EAEEF0E0A081B1819C914E
:1002000094609C9395E19A95F1F70000A081B181EB
:100210009C919F709C93A081B1819C91807F892B40
:100220008C930190F081E02D80818B7F80838AE622
:100230008A95F1F700C00895CF93C82FE091EA00A6
:10024000F091EB0090819E7F90830E94FB008C2FA9
:100250008295807FCF910C94FB009093EB0080936C
:10026000EA00ECEEF0E071836083DC011C92019007
:10027000F081E02D8FEF808380E30E94FB008FE010
:1002800097E20197F1F700C0000080E30E94FB00B5
:10029000AFE3B1E01197F1F700C0000080E30E94E6
:1002A000FB008FE391E00197F1F700C0000080E2CE
:1002B0000E94FB00AFE3B1E01197F1F700C000002E
:1002C00088E20E941C018FE391E00197F1F700C0E2
:1002D00000008CE00E941C01AFE3B1E01197F1F740
:1002E00000C0000084E00E941C018FE391E00197B0
:1002F000F1F700C0000081E00E941C01AFE9BFE0FF
:100300001197F1F700C000000895CF93C82FA09176
:10031000EA00B091EB008C9181608C93C03C30F08E
:10032000C05CEC2FF0E0EE59FF4FC0818C2F0E9493
:10033000FB008C2F8295807FCF910C94FB00EF9275
:10034000FF921F93CF93DF931F92CDB7DEB7182F85
:10035000E82EF92E07C0F70181917F0169830E9481
:10036000850169818E2D811B8617A8F30F90DF917F
:10037000CF911F91FF90EF9008956150633030F45A
:10038000E62FF0E0EE55FF4F908101C090E08F70B6
:10039000890F80680C941C0181E00E941C018FE988
:1003A0009FE00197F1F700C00000089588E40E94E3
:1003B0001C0187E20E94850183E20E94850185E29B
:1003C0000E94850184E20E94850184E20E948501E9
:1003D00084E30E94850188E30E9485018CE30C94EC
:1003E00085018FEF8BBB8ABB0E9449006AE370E0F6
:1003F0008BE390E00E942D0180E28BBF14BE8BBF87
:1004000015BE60E080E00E94BD0160E187EC90E0F5
:0C0410000E949F017894FFCFF894FFCF6A
:10041C00A50041A042A1E045A3A4A5A64BA74D4829
:10042C004FA8504354A9AA58E1ABACE2ADAEADAF66
:10043C00B0B161B2B3B4E365B6B7B8B9BABBBCBDC1
:10044C006FBE7063BF79E478E5C0C1E6C2C3C4C5B2
:10045C00C6C7401050202020202020202020202003
:10046C00202020202000CFEEEBF3F7E8EB2120201A
:10047C0020202020202000C3EEF2EEE221202020BC
:08048C00202020202020200088
:00000001FF
