:1000000003308A00AD2B0000FF00030E8301A10026
:100010000A08A0008A010408A2007708A300780853
:10002000A4007908A5007A08A600831383128B1D0B
:100030001B280B1832288C308400001C21280C1837
:100040003528220884002308F7002408F800250832
:10005000F9002608FA0020088A00210E8300FF0E0E
:100060007F0E09008A110A12932A8A110A12712A34
:100070000A108A100A1182074134A0344234A13494
:10008000E0344534A334A434A534A6344B34A73427
:100090004D3448344F34A834503443345434A934A4
:1000A000AA345834E134AB34AC34E234AD34AE3439
:1000B000AD34AF34B034B1346134B234B334B43469
:1000C000E3346534B634B734B834B934BA34BB34F5
:1000D000BC34BD346F34BE3470346334BF347934CF
:1000E000E4347834E534C034C134E634C234C33443
:1000F000C434C534C634C73483164E08F8014D02E3
:10010000031885284D08F7009128F7010830CF0023
:10011000CD0DF70D4E0877020318F700F80DCF0B41
:10012000882883120800310884008313321883174B
:1001300083164D088000840A80018312B10A0319D6
:10014000B20A080020308316481E3030C900470824
:10015000F700C71FB328F709F70A7708C7002D3043
:10016000C900C81748144708CD006430CE00831278
:100170007C2077088316C70030307807CA0047080C
:10018000CD000A30CE0083127C20303077078316F2
:10019000CC0030307807CB004908F70030304A02F5
:1001A0000319D628C814C81B4815EA284819EA2894
:1001B0004908CA00C818E12830304B020319E42866
:1001C0004814C81BC814EA28031D4814031DEA2854
:1001D0004A08CB004819F128C818F6284818FB2807
:1001E00000294908CD008312932083164A08CD00C8
:1001F0008312932083164B08CD008312932083161D
:100200004C08CD008312932008008316CC010030E7
:100210008312081801308316CC040030831288182A
:100220000130F7000310F70D77088316CC04003077
:10023000831208190130F700F70DF70DFC30F705B0
:1002400077088316CC040030831288190130F70038
:10025000F70DF70DF70DF830F70577088316CC0486
:1002600000308312081A0130F700F70EF030F7055E
:1002700077088316CC0400308312881A0130F70007
:10028000F70EF70DE030F70577088316CC04003041
:100290008312081B0130F700F70EF70DF70DC03081
:1002A000F70577088316CC0400308312881B0130D1
:1002B000F700770CF7010318F71777088316CC04BB
:1002C0004C08F800831208000521780804388316CA
:1002D000CC004C08CD0088014D088312880070299D
:1002E000052178080F398316CC004C08CD00880111
:1002F0004D0883128800052178088316CC004B082E
:10030000F039CC044C08CD0088014D0883128800D8
:1003100005217808FB398316CC004C08CD008801F4
:100320004D08831288000230F700F70B95299829B1
:10033000000008008316C6014508FC3E0318B329D7
:10034000043E8312D6298316C601B3294030831692
:10035000C600B32910308316C600B3295030831667
:10036000C600B329831644080F39C60746088038EB
:10037000C7004708C800831205217808FE39831694
:10038000C9004908CD0088014D08831288008316F2
:100390004808CB00831264218316480EC900F03050
:1003A000C9054908CB008312642108000A148A1089
:1003B0000A118207A329A629AA29AE2905217808AE
:1003C00001388316CA004A08CD0088014D088312FF
:1003D000880083164908CA004A08BF3C0318F82958
:1003E000C030CA024A0883123820F8008316CA00B7
:1003F0004A08F8007808CA00CB00831264218316EB
:100400004908CA004A08BF3C03180E2AC030CA0275
:100410004A0883123820F8008316CA004A08F800F8
:10042000780ECA00F030CA054A08CB008312642156
:100430000800283083163B07840083130008C4009B
:100440002B303B07840083130008C5002E303B0788
:10045000840083130008C6008312B201BC30B100CF
:1004600083164408C7000130C8008312A2203A3026
:100470008316CD008312932083164508C7000130F0
:10048000C8008312A2203A308316CD008312932035
:1004900083164608C7000130C8008312A220083026
:1004A0008316C4003B08C50083129A218316C50138
:1004B000BC30C4000830C600C70146084702031814
:1004C0006F2A4708440784008313451883170008E0
:1004D000C800C9008312DE218316C70A5D2A831271
:1004E0000800B408031DB403B30A3308193C031D04
:1004F0008F2AAE0A2E083C3C031D8A2AAE01AB0AA5
:100500002B083C3C031D8A2AAB01A80A2B083C3C63
:100510000319A8018316BB0183121922B3010C1021
:100520008A110A122128831606168312061AA92A8E
:10053000B408031DA82A2808A9002B08AC002E081F
:10054000AF0001308316BB00831219221930B400AA
:10055000BE2A831686168312861ABE2AB408031D85
:10056000BE2A2808AA002B08AD002E08B0000230D1
:100570008316BB00831219221930B4000B108A11A4
:100580000A1221288316CD0188014D0883128800A4
:10059000FF308316B1003108B200B209320888007A
:1005A0008312A7018B1BA7178B1330308316CB0048
:1005B00083126421A71B8B1705308316B100B1305D
:1005C0008400831300080319EB2A5230F700F70B5D
:1005D000E72A800BE52A8312A7018B1BA7178B1331
:1005E00030308316CB0083126421A71B8B170C308D
:1005F000F700F70BF92AFC2A0000A7018B1BA717AD
:100600008B1330308316CB0083126421A71B8B170A
:100610000C30F700F70B0A2B0D2B0000A7018B1BEA
:10062000A7178B1320308316CB0083126421A71BDE
:100630008B170C30F700F70B1B2B1E2B00002830FC
:100640008316C800831205217808FE398316C90075
:100650004908CD0088014D08831288008316480898
:10066000CB00831264218316480EC900F030C905FF
:100670004908CB00831264210C30F700F70B3E2BA6
:10068000412B00000C308316C80083120521780826
:10069000FE398316C9004908CD0088014D08831230
:1006A000880083164808CB00831264218316480E05
:1006B000C900F030C9054908CB00831264210C3011
:1006C000F700F70B612B642B000004308316C80081
:1006D000831205217808FE398316C9004908CD0028
:1006E00088014D088312880083164808CB008312C6
:1006F00064218316480EC900F030C9054908CB00B3
:10070000831264210C30F700F70B842B872B000039
:1007100001308316C800831205217808FE3983163C
:10072000C9004908CD0088014D088312880083164E
:100730004808CB00831264218316480EC900F030AC
:10074000C9054908CB0083126421A630F700F70BD6
:10075000A72B00008A110A12D22B03081F3983002D
:10076000B201B10183161F149F141F159F1107308A
:100770009C0083138312A801A901AA01AB01AC015B
:10078000AD01AE01AF01B001C0308B048B158316F3
:100790008113853083129000C0308B0483160C14B3
:1007A0008312C22AA7018B1BA7178B138316C401C0
:1007B000C50183129A21A71B8B172030B500543036
:1007C000B6006930B7006D30B8006530B9003A3016
:1007D000BA002030BB00BC00BD00BE004E30BF00E0
:1007E0002F30C0004130C1002030C200C300C4001F
:1007F000C500C6018316C5013530C4001030C600DF
:10080000C701460847020318132C47084407840011
:100810008313451883170008C800C9008312DE211E
:100820008316C70A012C8312A7018B1BA7178B13F2
:100830008316C4010130C50083129A21A71B8B17B0
:100840004C30C7006130C8007030C9003130CA0078
:100850003A30CB002030CC00CD00CE00CF004E305F
:10086000D0002F30D1004130D2002030D300D4004E
:10087000D500D600D7018316C5014730C40010301B
:10088000C600C701460847020318542C470844070E
:1008900084008313451883170008C800C900831219
:1008A000DE218316C70A422C8312A7018B1BA717D0
:1008B0008B138316C4010230C50083129A21A71B33
:1008C0008B174C30D8006130D9007030DA003230EC
:1008D000DB003A30DC002030DD00DE00DF00E0002D
:1008E0004E30E1002F30E2004130E3002030E400E0
:1008F000E500E600E700E8018316C5015830C400B2
:100900001030C600C701460847020318952C470857
:10091000440784008313451883170008C800C900E2
:100920008312DE218316C70A832C8312A7018B1B37
:10093000A7178B138316C4010330C50083129A21B5
:10094000A71B8B1743308316A000F230A100F030B4
:10095000A200EE30A300EA30A400E030A500203071
:10096000A600A700A800A900AA00AB00AC00AD003B
:10097000AE00AF00B001C501A030C4001030C60009
:10098000C701460847020318D32C470844078400D0
:100990008313451883170008C800C9008312DE219D
:1009A0008316C70AC12C4830C80083120521780875
:1009B000FE398316C9004908CD0088014D0883120D
:1009C000880083164808CB00831264218316480EE2
:1009D000C900F030C9054908CB0083126421A70182
:1009E0008B1BA7178B133F308316C9008312DE21A0
:1009F000A71B8B17A7018B1BA7178B1331308316EF
:100A0000C9008312DE21A71B8B17A7018B1BA71719
:100A10008B1331308316C9008312DE21A71B8B177D
:100A2000A7018B1BA7178B1335308316C9008312C0
:100A3000DE21A71B8B17A7018B1BA7178B13353044
:100A40008316C9008312DE21A71B8B17A7018B1BFE
:100A5000A7178B1331308316C9008312DE21A71B21
:100A60008B17A7018B1BA7178B1331308316C90077
:100A70008312DE21A71B8B17A7018B1BA7178B13D4
:100A80003F308316C9008312DE21A71B8B17A701F5
:100A90008B1BA7178B130E308316C4000330C500C1
:100AA00083129A21A71B8B17A7018B1BA7178B13E8
:100AB00001308316C9008312DE21A71B8B175F2D1F
:020AC0006300D1
:02400E00323F3F
:00000001FF
;PIC16F877A
;CRC=790D  CREATED="24-дек-14 17:11"
