:1000000000308A00D1280000FF00030E8301A10008
:100010000A08A0008A010408A2007708A300780853
:10002000A4007908A5007A08A600831383128B1D0B
:100030001B280B1830280B1E1F288B18332822086A
:1000400084002308F7002408F8002508F900260892
:10005000FA0020088A00210E8300FF0E7F0E09009F
:100060008A110A123A288A110A1236288B108A112C
:100070000A121F28831606168312061A4E28A70195
:1000800083168610831286100030A800831687011D
:1000900083128701831688108312881083168616B0
:1000A0008312861A5D280130A700831686108312FA
:1000B000861483168810831288140B100B108A1173
:1000C0000A121F284A308400831300080319752878
:1000D0000630F800F701F70B6B28F80B6A287B3025
:1000E000F700F70B7128800B68288A110A12E7289D
:1000F000FF308316880083128A110A12E8288316BB
:100100008810831288108316881583128819832813
:1001100083168815831288199C2883160814831265
:10012000081C8D28831688108312881083160814E3
:1001300083120818962888280130F8008A110A12BC
:100140003529CB1FA8288316881083128814AC2861
:1001500083168810831288108316881583128819D5
:10016000AC288316881583128819CE2883160814A4
:100170008312081CB628CB1FC2288316881083124E
:100180008814C62883168810831288100310CB0D9C
:100190008316081483120818C828B1280130F80003
:1001A000080003081F398300A701FF30A800831649
:1001B0001F149F141F159F1107309C008313831277
:1001C0000B138B138B1BE1286430CA00622878283C
:1001D000FF3083168600011783128B158316811357
:1001E00083120B100B16C0308B042030AB00D130C3
:1001F000AC00EE30AD00EB30AE00ED30AF00FB30C8
:10020000B000F830B100EA30B200E830B300ED30B1
:10021000B400E030B5002030B600B701AA012B30A1
:10022000A900C730BA00E230BB00E530BC00E730BF
:10023000BD00E430BE00EE30BF00F730C000EA3051
:10024000C100E830C200ED30C300E030C40020300F
:10025000C500C601B9013A30B8000030A8008316C5
:10026000870183128701C7017F287808C700C70864
:1002700003196129A708031D4F29C80148080A3C32
:10028000031C4E2948083807840083133918831744
:100290000008CA00CB00A120C80A3E296029C90174
:1002A00049080A3C031C6029490829078400831374
:1002B0002A1883170008CA00CB00A120C90A5029B8
:0602C000C70134296300B0
:02400E00323F3F
:00000001FF
;PIC16F877A
;CRC=B00E  CREATED="29-θών-15 18:23"
