:1000000029C0000042C0000040C0000054C20000EF
:100010003CC000003AC0000038C0000036C00000FC
:1000200034C0000032C0000030C000002EC000000C
:100030002CC000002AC0000028C0000026C000001C
:1000400024C0000022C0000020C0000089C10000C0
:100050001CC0000011241FBECFE5D4E0DEBFCDBF21
:1000600010E0A0E6B0E0E6EAF5E002C005900D92EF
:10007000AC36B107D9F720E0ACE6B0E001C01D9284
:10008000A538B207E1F749D28CC2BACFDA9A95E126
:100090009A95F1F700009BB39F709BBB9BB3807F49
:1000A000892B8BBBDA988AE68A95F1F700C0089510
:1000B000CF93C82FD898EADF8C2F8295807FCF917D
:1000C000E5CF8FEF8ABB1BBA80E3E0DF8FE097E2DA
:1000D0000197F1F700C0000080E3D8DF8FE391E0E3
:1000E0000197F1F700C0000080E3D0DF8FE391E0DB
:1000F0000197F1F700C0000080E2C8DF8FE391E0D4
:100100000197F1F700C0000088E2D2DF8FE391E0B1
:100110000197F1F700C000008CE0CADF8FE391E0A7
:100120000197F1F700C0000084E0C2DF8FE391E0A7
:100130000197F1F700C0000081E0BADF8FE99FE08E
:100140000197F1F700C00000089582E080B983E0D4
:1001500081B986B7846086BF089584EA86BF8FE937
:100160009FE00197F1F700C00000089584E986BF81
:100170008FE99FE00197F1F700C00000089583B96F
:1001800084E886BF8FE99FE00197F1F700C0000087
:1001900081B1887F883159F081B1887F883239F008
:1001A00091B1987F81E0903419F080E0089581E06A
:1001B000089526B7662311F0206401C02F7B26BF67
:1001C00026B7206826BFEFE9FFE03197F1F700C0BE
:1001D000000021B1287F283521F021B1287F20356A
:1001E00029F423B1FC01208381E0089580E0089583
:1001F0001F93CF93DF93182FEB01AFDF80EDBFDFAD
:10020000882389F0812FBBDF882369F0A6DF81ED89
:10021000B6DF882341F060E0CE01CBDF882319F000
:10022000A5DF81E001C080E0DF91CF911F910895AB
:10023000CF93DF931F92CDB7DEB7BE016F5F7F4FC5
:1002400080E0D6DF8981982F92959F708F702AE089
:10025000929F800D112480936F00BE016F5F7F4FCE
:1002600081E0C6DF8981982F92959F708F702AE078
:10027000929F800D112480937000BE016F5F7F4FAD
:1002800082E0B6DF8981982F92959F708F702AE067
:10029000929F800D1124809371000F90DF91CF9178
:1002A0000895CF93DF93D82FC62F57DF80ED67DFF8
:1002B000882359F08D2F63DF882339F08C2F5FDF7F
:1002C000882319F053DF81E001C080E0DF91CF91F6
:1002D0000895B69921C0B69BFECF809171008F5FC3
:1002E000883118F48093710002C0109271008091DF
:1002F00071006AE04AD1692F20E1829FC001112478
:10030000682B82E0CEDF8FEF90E722E081509040B3
:100310002040E1F700C00000B79921C0B79BFECF95
:10032000809170008F5F8C3318F48093700002C04E
:1003300010927000809170006AE027D1692F20E14F
:10034000829FC0011124682B81E0ABDF8FEF90E723
:1003500022E0815090402040E1F700C00000089565
:100360001F920F920FB60F9211242F936F937F93CA
:100370008F939F93AF93BF93EF93FF93CF93DF93AD
:10038000CDB7DEB72A97DEBFCDBF88B38C6388BBFD
:1003900012BE8AE0E1E6F0E0DE01119601900D92D6
:1003A0008A95E1F7809160008F5F863019F0809325
:1003B000600002C01092600028B381E090E00090DD
:1003C000600002C0880F991F0A94E2F7809582238B
:1003D00088BB809171002AE0622FD7D080936E0095
:1003E0009093840080917000D0D08093720090939D
:1003F000830080916000823079F482B3807882BB80
:1004000082B390916E00E1E0F0E0EC0FFD1FE90F88
:10041000F11D9081892B82BB80916000833079F43B
:1004200082B3807882BB82B390918400E1E0F0E0F7
:10043000EC0FFD1FE90FF11D9081892B82BB80918C
:100440006000843079F482B3807882BB82B390916B
:100450007200E1E0F0E0EC0FFD1FE90FF11D90816B
:10046000892B82BB80916000853079F482B38078DB
:1004700082BB82B390918300E1E0F0E0EC0FFD1FBE
:10048000E90FF11D9081892B82BB2A960FB6F89453
:10049000DEBF0FBECDBFDF91CF91FF91EF91BF9136
:1004A000AF919F918F917F916F912F910F900FBE80
:1004B0000F901F9018951F920F920FB60F92112454
:1004C0008F939F9314BC809171008730F9F48091D1
:1004D00070008530D8F480916D008F5F80936D003F
:1004E0008233A1F410926D0080916C00813011F480
:1004F0008F9A979880916C00811102C08F9A979A79
:1005000080916C0091E0892780936C009F918F917E
:100510000F900FBE0F901F901895CF93DF931F92EF
:10052000CDB7DEB72FEF80E792E0215080409040BA
:10053000E1F700C000001ABA1FEF1BBBC2DD05DEE9
:10054000BE016F5F7F4F80E053DE69816F77698303
:1005500080E0A7DE87B38C6387BB87B387BB88B394
:10056000806C88BB89E18CBF82E383BD83B78D60DB
:1005700083BF85B58E6085BD89B7826889BF58DE27
:1005800011BB789455DEA5DEFDCF991B79E004C040
:10059000991F961708F0961B881F7A95C9F78095C2
:0605A0000895F894FFCF5E
:0C05A600023F065B4F666D7D077F6F0013
:00000001FF
